:03000000020006F5
:03005F0002000399
:0300030002006296
:1000620075A000E5A025E0F5A0E5A070047F018061
:1000720002AFA08FA075820112007F80E6AF827E60
:10008200C8EF75F00AA4FF7EC87DF8DDFEDEFADF58
:10009200F622AF82AE837DFA0000DDFCDEF8DFF4EB
:0100A200223B
:06003500E478FFF6D8FD9F
:100013007900E94400601B7A009000A7780175A07D
:1000230000E493F2A308B8000205A0D9F4DAF2754C
:02003300A0FF2C
:10003B007800E84400600A790175A000E4F309D860
:10004B00FC7800E84400600C7900900001E4F0A318
:04005B00D8FCD9FAFA
:0D0006007581071200A3E58260030200036C
:0400A3007582002240
:00000001FF
